:020000040808EA
:10000000C8400020E9E70A0885900A088D900A0890
:1000100095900A089D900A08A5900A080000000023
:10002000000000000000000000000000AD900A0881
:10003000B5900A0800000000BD900A08C5900A08A3
:10004000A5FB0A08A9FB0A08ADFB0A08D1900A081B
:10005000B1FB0A08B5FB0A08FB9A0A08B9FB0A08B3
:10006000BDFB0A08C1FB0A08C5FB0A08C9FB0A0850
:10007000CDFB0A08D1FB0A08D5FB0A08D9FB0A0800
:10008000DDFB0A08E1FB0A08E5FB0A08E9FB0A08B0
:10009000EDFB0A08F1FB0A08F5FB0A08199B0A08A0
:1000A000F9FB0A08FDFB0A0801FC0A0805FC0A081E
:1000B00009FC0A08C59B0A080DFC0A0811FC0A087D
:1000C00015FC0A0819FC0A081DFC0A0821FC0A088C
:1000D00025FC0A0829FC0A082DFC0A0831FC0A083C
:1000E000D59C0A08C3970A0835FC0A0839FC0A0897
:1000F000419D0A083DFC0A08559D0A0841FC0A0872
:1001000045FC0A0849FC0A083D9C0A084DFC0A08FF
:1001100051FC0A0855FC0A08899C0A0859FC0A087F
:100120005DFC0A0861FC0A0865FC0A0869FC0A080B
:100130006DFC0A0871FC0A0875FC0A0879FC0A08BB
:100140007DFC0A08779B0A0881FC0A086D9D0A0855
:1001500085FC0A0889FC0A088DFC0A0891FC0A083B
:1001600095FC0A0899FC0A089DFC0A08A1FC0A08EB
:10017000A5FC0A08A9FC0A08ADFC0A08000000005A
:10018000B1FC0A08B5FC0A0800690840884201D1A0
:10019000012000E000207047816170478162704754
:1001A000704780B5DFF8E809407B03282BDA002090
:1001B000DFF8E01981F82F000520DFF8D81981F861
:1001C0003600DFF8CC09407BDFF8CC19C871DFF8C6
:1001D000C009407B012804D10120DFF8BC19487117
:1001E00003E00020DFF8B0194871DFF8A409DFF858
:1001F000AC192C2204F0B2FF04F077FEDFF890096E
:10020000006A804703E0DFF88809006A804701BD83
:1002100080B5DFF87C09407B0A2833DADFF8700903
:10022000407B002803D0022811D008D317E0DFF864
:100230006009DFF86C192C2204F090FF16E0DFF85B
:100240005009DFF860192C2204F088FF0EE0DFF877
:100250004009DFF854192C2204F080FF06E0DFF893
:100260003009DFF83C192C2204F078FF02F0D3FFAC
:1002700004F03BFE03F014FA0020DFF8181981F8AF
:100280002F005EE0DFF80809407B342804D0DFF857
:100290000009407B372825D1DFF8F408407B34285B
:1002A00002D0372808D00FE0DFF8E408DFF8FC18A8
:1002B0002C2204F053FF0EE0DFF8D408DFF8F0182A
:1002C0002C2204F04BFF06E0DFF8C408DFF8E0184A
:1002D0002C2204F043FF02F09EFF04F006FE03F020
:1002E000DFF92EE0DFF8A808407B3E2804D0DFF8D5
:1002F000A008407B412824D1DFF89408407B3E28A9
:1003000002D0412808D00FE0DFF88408DFF8A418F5
:100310002C2204F023FF0EE0DFF87408DFF89818B1
:100320002C2204F01BFF06E0DFF86408DFF88018D9
:100330002C2204F013FF02F06EFF04F0D6FD03F050
:10034000AFF9DFF84C08C069804701BD80B5DFF820
:1003500040088069804701BD80B5DFF834084069F6
:10036000804701BD80B50020DFF82C1808710020FF
:10037000DFF824188871DFF81808DFF820182C221D
:1003800004F0ECFE0520DFF80C1881F8360000F0D0
:1003900029FC01BD80B50020DFF8FC170871DFF8EB
:1003A000F007DFF818182C2204F0D8FE00F01AFC31
:1003B00001BD10B584B000240C228021002006F07D
:1003C0002DFB5D20009000230122DFF8F41701A827
:1003D00006F09CFF040008220921DFF8E80700F07E
:1003E000E9FA14220721DFF8E00700F0E3FA2022FF
:1003F000E4B2210001A800F0DDFA06F05BFC342233
:100400008021002006F00AFB1FBD80B50C22802150
:10041000002006F003FBDFF8B40790F83D00002849
:1004200010D108220321BCA000F0C4FA1422032139
:10043000BAA000F0BFFA20220721DFF8940700F0ED
:10044000B9FA10E008220721DFF8880700F0B2FAB5
:1004500014220921DFF8800700F0ACFA20220021E5
:10046000AFA000F0A7FA06F025FC3422802100207E
:1004700006F0D4FA01BD80B50020DFF81C17087122
:100480000020DFF858170870DFF80C07C079002843
:1004900016D10020DFF800174871DFF84407006824
:1004A00050F00800DFF838170860DFF8E816086D2C
:1004B000DFF8E01650F08050086501F02DFCA6E052
:1004C000DFF8D406C079022816D10020DFF8C8165C
:1004D0004871DFF80C07006850F00800DFF80017DB
:1004E0000860DFF8B016086DDFF8A81650F08050ED
:1004F000086501F0B7FD8AE0DFF89C06C0790128A5
:1005000016D10120DFF890164871DFF8D406006894
:1005100050F00800DFF8C8160860DFF87816086D9C
:10052000DFF8701650F40040086501F0EDFC6EE055
:10053000DFF86406C079032832D10220DFF85816AC
:100540004871DFF85016086DDFF8481650F4005077
:1005500008650020DFF8401B0870DFF83C0600212A
:10056000C1600020DFF8301681F83F00DFF8280670
:1005700000210163DFF82006002101610020DFF87F
:10058000181681F84000DFF810060021C0F83A1074
:100590000020DFF8041681F83E0006F0D1FE36E0B8
:1005A000DFF8F405C079042831D10320DFF8E8151D
:1005B0004871DFF8E4050021C1600020DFF8D8159C
:1005C00081F83F00DFF8D00500210163DFF8C8059E
:1005D000002141610020DFF8C01581F84100DFF8FB
:1005E000B8050021C0F83A100020DFF8AC1581F8FA
:1005F0003E00DFF8A015086DDFF8981550F4804034
:1006000008650020DFF8941A087008F03BFC01BD73
:1006100080B5DFF87C05407B0A2821D1DFF8C005D2
:10062000006850F00800DFF8B8150860DFF86405CE
:1006300090F83000022805D0DFF8580590F8300017
:10064000002802D101F060FC24E0DFF84C05C079FD
:10065000022802D101F006FD1CE001F05DFB19E06B
:10066000DFF82C05407B152802D101F055FB11E085
:10067000DFF81C05407B162802D101F045FC09E09B
:10068000DFF80C05407B172802D101F0EBFC01E0FC
:1006900001F042FB01BD30B583B004000D00DFF86E
:1006A0002C0590F83D0002280BDA6846DFF81C158F
:1006B00091F83D10052251432944052204F03EFDE6
:1006C00004E068462900052204F038FD2000694650
:1006D000052204F033FD37BD76B582B004001D005D
:1006E0000026DFF8AC04008A844203D1012D01D139
:1006F000012006000DF1090108683100C9B200911E
:100700000C2101FB04F111F108030A229DF80810E5
:1007100000F008F87FBD0000544F4F004C4F5700C9
:10072000000000002DE9F84304000D001600994672
:1007300000275FF0000800200700AF4280F03881FA
:10074000E05D80465FFA88F8B8F1400F09D10823D0
:10075000DFF84C294946C9B23000C0B206F0C2F8F1
:10076000D4E05FFA88F8B8F15E0F09D10623DFF80C
:1007700034294946C9B23000C0B206F0B3F8C5E02A
:100780005FFA88F8B8F1230F1ED10423DFF8182987
:100790004846B0F10801C9B23000C0B206F0A2F874
:1007A0000623DFF808294946C9B23000C0B206F076
:1007B00099F80223DFF8F82819F10801C9B23000CE
:1007C000C0B206F08FF8A1E05FFA88F8B8F1240F04
:1007D0007CD16079C42802D02078422819D1DFF872
:1007E000EC0390F83A00002809D10823DFF8C42868
:1007F0004946C9B23000C0B206F074F886E008235A
:10080000DFF8B4284946C9B23000C0B206F06AF831
:100810007CE02078C72802D02078532819D1DFF84F
:10082000AC0390F83900002809D10823DFF88428A8
:100830004946C9B23000C0B206F054F866E0082359
:10084000DFF874284946C9B23000C0B206F04AF851
:100850005CE02078CE2802D02078542819D1DFF827
:10086000340390F87200002809D10823DFF84428E7
:100870004946C9B23000C0B206F034F846E0082359
:10088000DFF834284946C9B23000C0B206F02AF871
:100890003CE020785E2839D1DFF8F80290F830008B
:1008A000042809D10823DFF80C284946C9B23000D2
:1008B000C0B206F017F829E00823DFF8FC27494604
:1008C000C9B23000C0B206F00DF81FE05FFA88F838
:1008D000B8F1C90F11D10C23C8224946C9B2300062
:1008E000C0B205F030FF0C23E0224846C11FC9B258
:1008F0003000C0B205F027FF08E00C234246D2B218
:100900004946C9B23000C0B205F01DFF5FFA88F851
:10091000B8F1570F01D10C3648E05FFA88F8B8F10A
:100920004D0F01D10B3641E05FFA88F8B8F1CC0FDA
:1009300001D10A363AE05FFA88F8B8F1450F0ED0D7
:100940005FFA88F8B8F1460F09D05FFA88F8B8F175
:100950004C0F04D05FFA88F8B8F17C0F01D1F61D76
:1009600024E05FFA88F8B8F1490F01D1361D1DE087
:100970005FFA88F8B8F1720F04D05FFA88F8B8F11E
:100980002F0F01D1B61D11E05FFA88F8B8F12E0FD4
:1009900009D05FFA88F8B8F15B0F04D05FFA88F8E5
:1009A000B8F13E0F01D1761D00E008367F1CC4E689
:1009B000BDE8F1832DE9F84304000D00160000277F
:1009C0005FF000085FF00009E800D0F18000400807
:1009D000814600200700AF4280F0A480E05D8046A1
:1009E0005FFA88F8B8F15E0F09D10623DFF8B42664
:1009F0003100C9B24846C0B205F074FF52E05FFA58
:100A000088F8B8F1230F1ED10423DFF89C263000AC
:100A1000B0F10801C9B24846C0B205F063FF062331
:100A2000DFF888263100C9B24846C0B205F05AFF47
:100A30000223DFF87C2616F10801C9B24846C0B28D
:100A400005F050FF2EE05FFA88F8B8F1400F09D1A9
:100A50000823DFF84C263100C9B24846C0B205F081
:100A600041FF1FE05FFA88F8B8F1C90F11D10C23DC
:100A7000C8223100C9B24846C0B205F064FE0C235A
:100A8000E0223000C11FC9B24846C0B205F05BFE8B
:100A900008E00C234246D2B23100C9B24846C0B287
:100AA00005F051FE5FFA88F8B8F1570F04D05FFAED
:100AB00088F8B8F1C60F02D119F10C0930E05FFADD
:100AC00088F8B8F14D0F04D05FFA88F8B8F1CC0F70
:100AD00002D119F10B0923E05FFA88F8B8F1450F4C
:100AE00009D05FFA88F8B8F1460F04D05FFA88F8A9
:100AF000B8F14C0F02D119F1070911E05FFA88F83B
:100B0000B8F1490F02D119F1040909E05FFA88F838
:100B1000B8F12E0F02D119F1050901E019F1080908
:100B20007F1C58E7BDE8F18338B50024002518483C
:100B3000806A800B10F0010004001548806AC00B29
:100B400010F001000500E4B2002C07D00823DFF804
:100B500068250821642005F0C5FE06E00823DFF8BB
:100B600054250821642005F0BDFEEDB2002D07D00C
:100B70000823DFF844251421642005F0B3FE06E0C5
:100B80000823DFF830251421642005F0ABFE31BDC9
:100B9000D02800203C350020DC020020B4D20A0816
:100BA00064D30A0890D30A08BCD30A087CD60A0882
:100BB00058D70A083CD90A0870DA0A08E0D20A08AD
:100BC000A8DF0A0898EA0A0894F70A08C035002046
:100BD000FCF60A0804F70A08A4EA0A08A738002065
:100BE0002038002070B58CB0002400250026DFF8E6
:100BF000D40B0079DFF84419497B884207D1DFF82C
:100C00003C09008A401CDFF83419088263E0DFF8F1
:100C10002C09407B0A2825D1DFF82009DFF8A81B22
:100C20002C2204F09BFA0520DFF8941B81F8360093
:100C3000DFF80809407BDFF88C1B087101F0A9FA86
:100C400004F071F9DFF87C0B4079002843D0DFF81D
:100C5000740B4079DFF8E41808820020DFF8641B89
:100C6000487138E0DFF8D408407B14282DD1DFF834
:100C7000CC08DFF82C1C2C2204F070FADFF8BC083A
:100C8000407BDFF8401B0871DFF8340B90F86600FA
:100C9000012806D1DFF80C0CDFF8A018886002F0FC
:100CA000FFFC01F076FA04F03EF9DFF8180B8079CA
:100CB000002810D0DFF80C0B8079DFF8801808824C
:100CC0000020DFF8001B887105E0DFF87008407B2A
:100CD000DFF8F01A0871DFF86408008ADFF85C18A2
:100CE00091F8281011F00F0188420CD30020DFF892
:100CF000B81B08700020DFF84418088201200500A6
:100D000004F011F95AE0DFF8A00B90F90000401C44
:100D1000DFF82818098A884202DB012005004DE02F
:100D2000DFF81808806A04281ED3DFF81008008A4C
:100D3000DFF80818896A491E884215D2DFF8FC07D7
:100D4000008ADFF8641B91F90010891C88420BD1DE
:100D5000DFF8E807008A401EDFF84C1B087001200E
:100D6000050004F0E0F829E0DFF8D007008ADFF89A
:100D7000CC17896A491E88420BD1DFF8C007008A68
:100D8000801EDFF8241B08700120050004F0CBF85A
:100D900014E0DFF8A807008ADFF80C1B91F90010B7
:100DA000491C88420ADBDFF89407008A401EDFF8FE
:100DB000F81A08700120050004F0B5F8DFF87C0788
:100DC00090F8280010F00F00032802D3032004003D
:100DD00006E0DFF8680790F8280010F00F00040024
:100DE000DFF8C40A90F90000DFF8BC1A91F900108E
:100DF000E4B26118884280F2FE80DFF84017497B38
:100E00000A2930D00E2952D00F2959D0122900F0CA
:100E1000D58013295DD0142900F0D98015292BD055
:100E2000162932D0172939D028295BD0292962D038
:100E30002A2969D02B2900F082802C2900F0A38078
:100E40002D2900F08E802E2900F0AF804C2900F073
:100E500091804D2900F0A0804E2967D04F2977D08E
:100E60005A295AD0BCE0DFF8881B51F8201002AA9A
:100E7000F6B242F82610BBE0DFF8781B51F82010DC
:100E800002AAF6B242F82610B2E0DFF86C1B51F865
:100E9000201002AAF6B242F82610A9E0DFF85C1B87
:100EA00051F8201002AAF6B242F82610A0E0DFF8AE
:100EB000501B51F8201002AAF6B242F8261097E013
:100EC000DFF8001C51F8201002AAF6B242F82610F2
:100ED0008EE0DFF8F41B51F8201002AAF6B242F8B7
:100EE000261085E0DFF8E41B51F8201002AAF6B2C4
:100EF00042F826107CE0DFF8D81B51F8201002AA37
:100F0000F6B242F8261073E0DFF8C41B51F8201047
:100F100002AAF6B242F826106AE0DFF8B81B51F8D0
:100F2000201002AAF6B242F8261061E0DFF8A81BF2
:100F300051F8201002AAF6B242F8261058E0DFF865
:100F40009C1B51F8201002AAF6B242F826104FE07E
:100F5000DFF8841B51F8201002AAF6B242F82610DE
:100F600046E0DFF8681B51F8201002AAF6B242F8FA
:100F700026103DE0DFF8681B51F8201002AAF6B2F7
:100F800042F8261034E0DFF85C1B51F8201002AA6A
:100F9000F6B242F826102BE0DFF8441B51F820107F
:100FA00002AAF6B242F8261022E0DFF8201B51F820
:100FB000201002AAF6B242F8261019E0DFF8701BE2
:100FC00051F8201002AAF6B242F8261010E0DFF81D
:100FD000641B51F8201002AAF6B242F8261007E06E
:100FE000DFF80C1A51F8201002AAF6B242F82610C7
:100FF000761C401CF8E602996846FFF74CFB01237B
:10100000DDE900010A0001000020FFF765FB0399FC
:101010006846FFF740FB0123DDE900010A000100FB
:101020000120FFF759FBDFF8140590F8280010F0B5
:101030000F0003280BD304996846FFF72CFB01230C
:10104000DDE900010A0001000220FFF745FBDFF89F
:10105000EC04407B0E2801D1FFF766FD05F02AFE67
:10106000EDB2002D0AD0DFF8D404008ADFF838187A
:1010700091F90010401AC0B206F062F8DFF8BC0423
:1010800090F8280010F00F01DFF8B004008AC0B219
:1010900005F047FD0CB070BDA8380020AD38002029
:1010A000FCF70A0804F80A0898FB0A080CF80A0872
:1010B000162D0908F4F70A08ECF70A0870B58CB089
:1010C000002400250026DFF8FC060079DFF86C1408
:1010D000497B884207D1DFF86404008A401EDFF8AC
:1010E0005C14088225E0DFF85404407B0A280AD10A
:1010F000DFF84804407BDFF8CC16087101F049F8AE
:1011000003F011FF15E0DFF83404407B14280AD106
:10111000DFF82804407BDFF8AC16087101F039F8DD
:1011200003F001FF05E0DFF81404407BDFF89416BC
:101130000871DFF8080490F8280010F00F00DFF8BD
:10114000FC13098A884225D2DFF8F00390F82800C2
:1011500010F00F0004280AD3DFF8E00390F828000D
:1011600010F00F00C01EDFF84017087003E00020E9
:10117000DFF834170870DFF8C40390F8280010F087
:101180000F00401EDFF8B41308820120040003F0B2
:10119000CAFE29E0DFF8A403008A00280BD0DFF89C
:1011A0009C03008ADFF8941391F8281011F00F01C6
:1011B000891E884202D10120040015E0DFF8E8060C
:1011C00090F9000001280BDBDFF8DC060078401EF8
:1011D000DFF8D41608700120040003F0A4FE03E039
:1011E0000120040003F09FFED44890F8280010F07E
:1011F0000F00032802D30320060005E0CF4890F833
:10120000280010F00F000600DFF89C060078C0B23E
:10121000DFF8941691F90010F6B27118884280F246
:101220001481C649497B0A2931D00E2957D00F298C
:101230005FD0122900F0C180132964D0142900F076
:10124000EE8015292DD0162935D017293DD0282913
:1012500063D029296BD02A2973D02B2900F08F80E5
:101260002C2900F0BE802D2900F09D802E2900F051
:10127000CC804C2900F0AB804D2900F0BC804E2979
:1012800073D04F2900F085805A2964D0D1E0DFF86F
:101290006017C0B251F8201002AAEDB242F8251032
:1012A000D0E0DFF85017C0B251F8201002AAEDB21A
:1012B00042F82510C6E0DFF84017C0B251F8201000
:1012C00002AAEDB242F82510BCE0DFF83017C0B238
:1012D00051F8201002AAEDB242F82510B2E0DFF872
:1012E0002017C0B251F8201002AAEDB242F8251022
:1012F000A8E0DFF8D017C0B251F8201002AAEDB272
:1013000042F825109EE0DFF8C017C0B251F8201057
:1013100002AAEDB242F8251094E0DFF8B017C0B28F
:1013200051F8201002AAEDB242F825108AE0DFF849
:10133000A017C0B251F8201002AAEDB242F8251051
:1013400080E0DFF88C17C0B251F8201002AAEDB28D
:1013500042F8251076E0DFF87C17C0B251F8201073
:1013600002AAEDB242F825106CE0DFF86C17C0B2AB
:1013700051F8201002AAEDB242F8251062E0DFF821
:101380005C17C0B251F8201002AAEDB242F8251045
:1013900058E0DFF84417C0B251F8201002AAEDB2AD
:1013A00042F825104EE0DFF82417C0B251F82010A3
:1013B00002AAEDB242F8251044E0DFF87417C0B27B
:1013C00051F8201002AAEDB242F825103AE0DFF8F9
:1013D0001017C0B251F8201002AAEDB242F8251041
:1013E00030E0DFF80017C0B251F8201002AAEDB2C9
:1013F00042F8251026E0DFF8E816C0B251F82010B8
:1014000002AAEDB242F825101CE0DFF8C016C0B207
:1014100051F8201002AAEDB242F8251012E0DFF8D0
:101420001417C0B251F8201002AAEDB242F82510EC
:1014300008E0DFF8BC15C0B251F8201002AAEDB2E6
:1014400042F825106D1C401CE1E602996846FFF742
:1014500022F90123DDE900010A0001000020FFF765
:101460003BF903996846FFF716F90123DDE900010E
:101470000A0001000120FFF72FF9304890F82800FA
:1014800010F00F0003280BD304996846FFF703F907
:101490000123DDE900010A0001000220FFF71CF929
:1014A00005F008FCE4B2002C09D02448008ADFF8DB
:1014B000F81391F90010401AC0B205F041FE1F4820
:1014C00090F8280010F00F011C48008AC0B205F007
:1014D00028FB0CB070BD80B50020BA490871DFF858
:1014E000740BDFF81C1A2C2203F038FE01F093FE77
:1014F00002F0D6F803F017FDB2484079DFF8541B2C
:101500000882FFF76FFB01BD80B50020AD4908716F
:10151000DFF8400BDFF8EC192C2203F01FFE01F07E
:101520007AFE02F0BDF803F0FEFCA6484079DFF831
:10153000241B0882FFF756FB01BD0000D0280020C5
:1015400080B5DFF8100B008A9E49487100209D4944
:1015500008710020D4490870DFF8F80A008A0028D2
:101560000AD0022830D01BD3042879D052D30628C1
:1015700000F0878077D386E0DFF8DC0A006850F05F
:101580000800DFF8D41A08608D49086D8C4950F0C6
:101590008050086500208B49C87100F0BDFB72E0E7
:1015A000DFF8B40A006850F00800DFF8AC1A0860F1
:1015B0008349086D824950F4004008650120814943
:1015C000C87100F0A1FC5EE07D49086D7C4950F4D3
:1015D000005008650020DFF8841A0870794800215F
:1015E000C1600020774981F83F00764800210163FF
:1015F0007448002101610020724981F8400071485F
:101600000021C0F83A1000206E4981F83E0005F034
:1016100097FE38E06B480021C1600020694981F8DD
:101620003F006848002101636648002141610020B5
:10163000644981F8410063480021C0F83A10002055
:10164000604981F83E005E49086D5D4950F4804074
:1016500008650020DFF8081A087007F013FC12E094
:1016600009F0A2FA0FE0DFF8EC098D492C2203F013
:1016700075FD00208C49087003F055FCFFF7B2FAA5
:1016800001E003F092FC01BD80B5DFF82C0C90F86E
:101690006600002840F08680DFF8B809008A4949D2
:1016A0008871DFF8B009008A002809D002283FD0ED
:1016B00009D3042842D03ED3062871D041D371E02B
:1016C0000CF0E8FA6EE0DFF8F00B90F86600002806
:1016D0002DD1DFF88009008A401EDFF878190882D2
:1016E000DFF8D80B90F8390000280DD00020DFF883
:1016F000CC1B81F83900DFF8C00B407E10F0FE00F3
:10170000DFF8B41B48760CE00120DFF8B01B81F84D
:101710003900DFF8A40B407E50F00100DFF8981B81
:10172000487603F000FCFFF75DFA0CF09BFD39E012
:101730000DF09AFA36E000F0D7F933E000F025FA20
:1017400030E0DFF8740B90F86600002827D1DFF84E
:101750000409008A401EDFF8FC180882DFF85C0BE1
:1017600090F85B0000280AD00020DFF8501B81F8B9
:101770005B000420DFF8401B81F8300009E0012005
:10178000DFF8381B81F85B00FF20DFF82C1B81F8A5
:10179000300003F0C8FBFFF725FA0CF063FD01E011
:1017A0000EF0EAF801BD80B5DFF80C1B086DDFF81C
:1017B000081B50F00070086500F0AEFA01BD000093
:1017C0003C350020DC020020B4D20A0880B5DFF8E6
:1017D0008408008ADFF8D81B4871DFF87808008A8F
:1017E000002805D0022820D015D3032820D04AE0B5
:1017F000DFF86408006850F00800DFF85C18086043
:10180000DFF8B41A086DDFF8B01A50F00800086568
:1018100000F082FA37E0DFF83C08DFF8A41A2C2247
:1018200003F09CFC0EF066F92DE00FF0BFF82AE003
:10183000DFF82008DFF88C1A2C2203F08FFC002040
:1018400019490870DFF86C0B90F83500012804D1B5
:101850000120DFF80018088203E00020DFF8F41709
:10186000088201F0D8FC03F05EFBDFF84C0A90F828
:101870006600012805D10B48DFF8D817886001F011
:101880000FFFFFF7AFF901BD80B5DFF82C1A086D27
:10189000DFF8241A50F00070086500F035FB01BD38
:1018A000E0D20A08C4EE0A08A738002080B5DFF8A5
:1018B000A407008ADFF8F81A4871DFF89807008A51
:1018C000002805D0022835D021D303283CD069E078
:1018D000DFF88007008A401EDFF878170882DFF8FB
:1018E000DC0990F83A00002805D00020DFF8CC1978
:1018F00081F83A0004E00120DFF8C01981F83A00CD
:1019000003F011FBFFF76EF90CF0ACFC4AE0DFF8D6
:101910004807006850F00800DFF83C170860DFF85F
:101920009819086DDFF8901950F00800086500F06C
:10193000EBFA37E0DFF81C07DFF82C1B2C2203F052
:101940000DFC0FF0D3FA2DE0DFF80807DFF81C1BC1
:101950002C2203F003FC0020DFF8D81B0870DFF80E
:10196000540A90F83600012804D10120DFF8E4166B
:10197000088203E00020DFF8DC16088201F04BFC4F
:1019800003F0D1FADFF8300990F86600012806D19B
:10199000DFF8DC0ADFF8BC16886001F081FEFFF793
:1019A00021F9FFE701BD80B5DFF80C0990F866006A
:1019B00000281CD1DFF89C06008ADFF8F419487172
:1019C000DFF89006008A002802D0012806D00AE03D
:1019D0000020DFF8E01981F8360004E00120DFF88C
:1019E000D41981F836000CF03DFC00F08DFA01BDF1
:1019F00028DE0A0878E40A0888E40A0898E40A0855
:101A00001CF80A0880B5DFF84C06008ADFF8A01938
:101A10004871DFF84006008A002805D0022817D058
:101A20000BD303281ED04BE0DFF82806008ADFF82E
:101A30008019487103F0ECFA42E0DFF87C18086D79
:101A4000DFF8741850F00070086500F00BFB37E009
:101A5000DFF80006DFF8E01A2C2203F07FFB10F01D
:101A6000B3F92DE0DFF8EC05DFF8D01A2C2203F0F3
:101A700075FB0020DFF8BC1A0870DFF8380990F811
:101A80003500012804D10120DFF8C815088203E0E1
:101A90000020DFF8C015088201F0BDFB03F043FA17
:101AA000DFF8140890F86600012806D1DFF8C009B5
:101AB000DFF8A015886001F0F3FDFFF793F8FFE76A
:101AC00001BD000024F80A0814F80A082CF80A08D6
:101AD00034F80A08D0EE0A08A8E40A083CF80A0814
:101AE000B8E40A0844F80A0880B5DFF86805DFF8AA
:101AF000501A2C2203F032FB01F08DFB01F0D0FDD7
:101B000003F011FA0020DFF82C1A0870DFF8AC0798
:101B100090F83D00002804D10120DFF83815088234
:101B200003E00020DFF82C150882FFF75BF801BD09
:101B3000DCEE0A0844DE0A0880B5DFF81805008AE2
:101B400001280DD1DFF86C0890F83D00012807D17D
:101B50000020DFF8601881F83D000CF083FB11E0F5
:101B6000DFF8F004008A00280CD1DFF8480890F86C
:101B70003D00002806D10120DFF8381881F83D002B
:101B80000CF070FBFEF706FC01BD80B5DFF8C40465
:101B9000DFF8B0192C2203F0E1FA01F03CFB01F070
:101BA0007FFD03F0C0F90020DFF888190870DFF826
:101BB0000C0790F86900012804D10120DFF8941483
:101BC000088203E00020DFF88C140882FFF70AF88F
:101BD00001BD80B5DFF87C04008A012840D1DFF820
:101BE000D40790F8690000283AD10120DFF8C41723
:101BF00081F869000CF036FBDFF8BC0690F8650050
:101C000001281AD10221DFF84009FEF7C7FA4FF484
:101C1000E140DFF8A416A1F87D00DFF89C06407EC5
:101C200050F01000DFF890164876DFF88C16086D3B
:101C3000DFF8841650F020000865DFF87C0690F885
:101C4000330050F00100DFF8701681F83300DFF840
:101C50000804006850F00200DFF8FC13086041E05F
:101C6000DFF8F003008A00283CD1DFF8480790F83D
:101C70006900012836D10020DFF8381781F86900A3
:101C80000CF0F0FADFF8300690F86500012819D161
:101C90000221DFF8B408FEF77FFA0020DFF81816FB
:101CA000A1F87D00DFF81006407E10F0EF00DFF8AD
:101CB00008164876DFF80016086DDFF8FC1550F0BE
:101CC00040000865DFF8F00590F8330050F001009F
:101CD000DFF8E41581F83300DF48006850F00200B7
:101CE000DD490860FEF756FB01BD80B501215FF0BC
:101CF0009040FEF749FA02BD80B5FFF7F6FF0028D5
:101D0000FBD0DFF8B40590F8350050F08000DFF824
:101D1000A81581F8350001BD80B52DED028BDFF8E7
:101D2000980590F8300001280CD0DFF88C0590F869
:101D30003000042806D0DFF8800590F83000032832
:101D400040F0948000F0C0FA0020DFF86C1581F8B4
:101D500036000020DFF858160871DFF85C05407E79
:101D600050F00200DFF850154876DFF84C0590F887
:101D70006600002807D0DFF84005407E50F00400E0
:101D8000DFF83415487603F0BAF801F044FA9FED15
:101D90005B8ADFF82415D1F82A00800509D50422D2
:101DA000DFF80C0690F8421018EE100A01F010FD52
:101DB0004BE0DFF8080590F8350000281FD1DFF868
:101DC000FC0490F83400012819D1DFF8E40581699A
:101DD00000EE101ADFED9C0AB4EE600AF1EE10FA84
:101DE0000DD5DFF8CC05816900EE101ADFED970AFA
:101DF00020EE200ABCEEC00AB0EE408A1CE0DFF8FC
:101E0000BC0490F8350001280DD1DFF8A4058169E4
:101E100000EE101ADFED8C0A20EE200ABCEEC00A9C
:101E2000B0EE408A08E0DFF88805816900EE101AFC
:101E3000BCEEC00AB0EE408A0222DFF8740590F8CA
:101E4000421018EE100A01F0C3FCDFF8700490F89D
:101E50006600DFF85C1581F8450000F0D2FF00F065
:101E600079FE00F0CEFF01F01BFC40E07948DFF87E
:101E7000DC162C2203F072F901F0CDF903F035F8ED
:101E8000DFF8380490F85B00012803D1DFF8C006C2
:101E90007049886001F004FCDFF8200490F83D00F0
:101EA000002811D108220521DFF8A806FEF782FDDF
:101EB0001422032166A0FEF77DFD20220621DFF813
:101EC0009806FEF777FD10E008220821DFF88C065F
:101ED000FEF770FD142203215DA0FEF76BFD2022AA
:101EE0000621DFF8580CFEF765FD04F0E3FE012043
:101EF000DFF84C1C0870BDEC028B01BD0000000037
:101F000064D30A0890D30A0880B5DFF8AC0390F8D0
:101F10003000022810D0DFF8A00390F8300000282D
:101F20000AD0DFF8940390F83000042804D0E24887
:101F300090F83000032843D10120DFF874140871B1
:101F40004448DFF8001C2C2203F008F90120DA498C
:101F500081F8360000F030FA02F0D1FF01F05BF9B1
:101F6000D549D1F82A00C0050CD5DFF844048168B2
:101F700000EE101A0421DFF8380490F8430002F054
:101F800069FC0BE0DFF82804816800EE101A0021DC
:101F9000DFF81C0490F8430002F05CFC00F0DAFD6E
:101FA000C64890F86600DFF8081481F8450006235B
:101FB00002220C21022003F005FB01F071FB3EE040
:101FC0002448DFF8841B2C2203F0C8F801F023F921
:101FD00002F08BFFB94890F85B00012803D1DFF8CD
:101FE00070051C49886001F05BFBB44890F83D0027
:101FF000002811D108220421DFF8500BFEF7DAFC8B
:102000001422032112A0FEF7D5FC20220621DFF8BE
:102010004805FEF7CFFC10E008220821DFF8300B5E
:10202000FEF7C8FC1422032109A0FEF7C3FC2022FE
:102030000621DFF8080BFEF7BDFC04F03BFE012093
:10204000DFF8FC1A087001BD0000C84200007A44A5
:1020500040235E00D028002020380020A83800202F
:10206000AD380020F8B5002400250220D0490871C1
:10207000DFF8A40CDFF8A41C2C2203F06FF800207A
:102080008D4981F8360000F0F5F902F038FF01F0D3
:10209000C2F800F0B6FE01F003FB00F05BFD8649DC
:1020A000D1F82A0040050CD4C148026A436A43ECC7
:1020B000102B51EC100B0122DFF8643C10F0E8FD0E
:1020C00012D8BB48826ABA48066A476A47EC106B66
:1020D000042316001F0051EC100B10F0F1FD3B0023
:1020E000320001F0DDFE4FE0744890F83500002822
:1020F00022D1724890F8340001281DD1AC48026A00
:10210000436A43EC102B51EC100B0022DFF8143C17
:1021100010F002FE10D2A648026A436A43EC102B6C
:1021200053EC102B0020DFF8001C10F00DFE10F017
:10213000C7FD04000D0020E0604890F8350001283C
:1021400010D19B48026A436A43EC102B53EC102BCE
:102150000020DFF8D01B10F0F7FD10F0B1FD0400F7
:102160000D000AE09248026A436A43EC102B51ECDE
:10217000100B10F0A5FD04000D008D48826A0223AB
:102180002000290001F08CFE0120DFF8B41908704E
:10219000F1BD80B501F03FF801F082FA0120DFF8CF
:1021A000A019087001BD444890F8330050F00700B2
:1021B000414981F83300FF20DFF8641C0870FF20DC
:1021C000DFF85C1C4870FF20DFF8541C8870FF208B
:1021D000DFF84C1CC870FF20DFF8441C4871FF205A
:1021E000DFF83C1C0871FF20DFF8341C8871FF20E9
:1021F000DFF82C1CC871FF20DFF8241C0872FF20B8
:10220000DFF8201C0870FF20DFF8181C4870FF2042
:10221000DFF8101C8870FF20DFF8081CC870FF2052
:10222000DFF8001C4871FF20DFF8F81B0871FF2061
:10223000DFF8F01B8871FF20DFF8E81BC871FF2072
:10224000DFF8E01B0872FF20DFF8DC1B0870FF20BE
:10225000DFF8D41B4870FF20DFF8CC1B8870FF200C
:10226000DFF8C41BC870FF20DFF8BC1B4871FF20DB
:10227000DFF8B41B0871FF20DFF8AC1B8871302039
:10228000DFF8A41BC871FF20DFF89C1B0872FF2039
:10229000DFF8941B4872FF20DFF88C1B8872FF2048
:1022A000DFF8841BC872FF20DFF87C1B0873FF2057
:1022B000DFF8741B487370473C350020C0350020A0
:1022C00014D40A0840D40A0880B5FF20DFF8501B58
:1022D0000870FF20DFF8481B4870FF20DFF8401B24
:1022E0008870FF20DFF8381BC870FF20DFF8301B34
:1022F0004871FF20DFF8281B0871FF20DFF8201B42
:102300008871FF20DFF8181BC871FF20DFF8101B51
:102310000872DFF8040A407B022805D0DFF80C0BB6
:102320000021C0F82A100AE0DFF8001BD1F82A00CB
:10233000DFF8F81A40F204421040C1F82A00DFF832
:10234000D809DFF8EC1A2C2202F008FF00207949A6
:1023500008700020DFF8C0190882DFF8D00A90F872
:10236000330050F00700DFF8C41A81F8330005206D
:102370000F4981F87B0000200D4908710D4890F845
:1023800066000B4981F845000A48416900EE101AC1
:10239000074810EE101AC0F867100520DFF88C1AF5
:1023A00081F861000020DFF8841A81F8620001BD25
:1023B000DC020020C0350020FF20DFF8681A08701A
:1023C000FF20DFF8601A4870FF20DFF8581A887085
:1023D000FF20DFF8501AC870FF20DFF8481A487154
:1023E000FF20DFF8401A0871FF20DFF8381A8871E3
:1023F000FF20DFF8301AC871FF20DFF8281A0872B2
:1024000000204C4908700020DFF80C190882DFF822
:102410001C0A0021C0F82A100520DFF8101A81F8E4
:1024200061000020DFF8041A81F86200DFF8E80894
:10243000407B012817D10020DFF80C1D81F87B00BC
:10244000DFF8F00990F86600DFF8FC1C81F8450021
:10245000DFF8E009416900EE101ADFF8EC0C10EE2D
:10246000101AC0F86710704798D40A086CD40A088C
:10247000C4EE0A08FF20DFF8B0190870FF20DFF86B
:10248000A8194870FF20DFF8A0198870FF20DFF836
:102490009819C870FF20DFF890194871FF20DFF805
:1024A00088190871FF20DFF8801988713020DFF863
:1024B0007819C871FF20DFF870190872FF20DFF863
:1024C00068194872FF20DFF860198872FF20DFF872
:1024D0005819C872FF20DFF850190873FF20DFF881
:1024E000481948730020134908700020DFF82818A5
:1024F00008820520DFF8501C81F87B000020DFF8FF
:10250000481C81F84400DFF82C09416900EE101ADC
:10251000DFF8340C10EE101AC0F867100520DFF851
:102520000C1981F861000020DFF8001981F86200C1
:1025300070470000A7380020C4D40A0848D50A080C
:102540000CD30A0838D30A080004004888D20A08C5
:1025500058EE0A089CF70A08A4F70A08B0EA0A0825
:10256000F8B52DED028BDFF8D008407B0A2880F209
:10257000A281DFF8C408407B012826D1DFF8AC082F
:1025800090F83000012820D1DFF8AC08DFF8A0185F
:102590002C2202F0E3FD0020DFF8AC1B08710020C4
:1025A000DFF8A41B4871DFF8840890F8330050F07E
:1025B0000100DFF8781881F83300FFF785FE00206E
:1025C000DFF8681881F8360062E0DFF86C08407BBD
:1025D00000282CD1DFF8540890F83000022805D0EC
:1025E000DFF8480890F83000002820D1DFF84808CC
:1025F000DFF850152C2202F0B1FD0120DFF8481B56
:1026000008710120DFF8401B4871DFF8200890F8BE
:10261000330050F00100DFF8141881F83300FFF7A1
:10262000CBFE0120DFF8041881F8360030E0DFF837
:102630000808407B02282BD1DFF8F00790F8300023
:10264000022805D0DFF8E40790F8300000281FD1F9
:10265000DFF8E407DFF8EC142C2202F07FFD012004
:10266000DFF8E41A08710120DFF8DC1A4871DFF89E
:10267000BC0790F8330050F00100DFF8B01781F884
:102680003300FFF799FE0120DFF8A01781F836002C
:10269000DFF8B40A007900285ED19FEDD38ADFF815
:1026A0008C17D1F82A00800509D50422DFF8980A92
:1026B00090F8421018EE100A01F08AF8E5E1DFF810
:1026C000740790F8350000281FD1DFF8680790F8EC
:1026D0003400012819D1DFF8700A816900EE101A60
:1026E000DFEDC20AB4EE600AF1EE10FA0DD5DFF8A4
:1026F000580A816900EE101ADFEDBD0A20EE200AAB
:10270000BCEEC00AB0EE408A1CE0DFF8280790F863
:10271000350001280DD1DFF8300A816900EE101A6A
:10272000DFEDB20A20EE200ABCEEC00AB0EE408A0D
:1027300008E0DFF8140A816900EE101ABCEEC00A46
:10274000B0EE408A0222DFF8000A90F8421018EE3C
:10275000100A01F03DF898E1DFF8EC090079012852
:102760001FD1DFF8C816D1F82A00C0050CD5DFF854
:10277000D809816800EE101A0421DFF8CC0990F81E
:10278000430002F067F880E1DFF8BC09816800EEE1
:10279000101A0021DFF8B00990F8430002F05AF84F
:1027A00073E1DFF8A4090079022840F06E8100246B
:1027B0000025DFF87816D1F82A0040050DD4DFF89F
:1027C0008809026A436A43EC102B51EC100B01227A
:1027D000DFF84C3510F05CFA14D8DFF86C09826A27
:1027E000DFF86409066A476A47EC106B0423160099
:1027F0001F0051EC100B10F063FA3B00320001F0A7
:102800004FFB42E1DFF82C0690F83500002825D177
:10281000DFF8200690F8340001281FD1DFF82809DE
:10282000026A436A43EC102B51EC100B0022DFF8D4
:10283000F43410F071FA11D2DFF80C09026A436A1D
:1028400043EC102B53EC102B0020DFF8DC1410F0BD
:102850007BFA10F035FA04000D0023E0DFF8D40510
:1028600090F83500012811D1DFF8DC08026A436ACC
:1028700043EC102B53EC102B0020DFF8A81410F0C1
:1028800063FA10F01DFA04000D000BE0DFF8B80841
:10289000026A436A43EC102B51EC100B10F010FA53
:1028A00004000D00DFF8A008826A0223200029003E
:1028B00001F0F6FAE9E0DFF88005407B322813D119
:1028C000DFF8680590F83000022805D0DFF85C05D5
:1028D00090F83000002807D1DFF87008DFF85815AD
:1028E000886004F02DFDD0E0DFF84C05407B3428F3
:1028F0000FD0DFF84405407B372805D1DFF82C05E1
:1029000090F86900002804D0DFF82C05407B3A28B5
:102910002ED1DFF8180590F83300C00716D5DFF880
:102920000C0590F8680001280ED1DFF8000590F83A
:102930002800002805D0DFF8F40490F82F000028C4
:1029400002D000F07BFA01E000F065FCDFF8F80748
:10295000816800EE101A0021DFF80C0C90F82100BD
:1029600005F0AEF90020DFF8C41481F833008CE0E4
:10297000DFF8C404407B3C2813D1DFF8B00490F8A2
:102980003000022805D0DFF8A40490F830000028B9
:1029900007D1DFF8B807DFF8A014886006F072FAF4
:1029A00073E0DFF87403407B18280CD1DFF87C0457
:1029B00090F83000012806D0FFF7A6FA0120DFF8D2
:1029C0008817487161E0D448407B192812D1DFF89C
:1029D0005C0490F8300002280CD0FFF79DF900202D
:1029E000DFF86417487150E0000000000000C842A2
:1029F00000007A44C848407B3E2807D0C648407B48
:102A0000412803D0C448407B4B282ED1DFF81C045A
:102A100090F83300C00716D5DFF8100490F868006E
:102A200001280ED1DFF8040490F82800002805D012
:102A3000DFF8F80390F82F00002802D000F0FEF92C
:102A400001E000F0E8FBDFF80007816800EE101AF3
:102A50000021DFF8140B90F8210006F0CBFE0020D7
:102A6000DFF8C81381F833000FE0AB48407B422801
:102A70000BD1DFF8B80390F83000012805D1DFF85A
:102A8000CC06A549886006F0FDF9A348407B5B2889
:102A90004CD0DFF8980390F8330040070DD59E48DE
:102AA000407B0A2807DB9C48407B322805DB9A489C
:102AB000407B462801DA00F04DF8DFF8700390F80B
:102AC0003300C00720D5DFF8640390F868000128C0
:102AD0000ED1DFF8580390F82800002805D0DFF861
:102AE0004C0390F82F00002802D000F0A7F901E075
:102AF00000F091FBDFF8340390F8330050F0080049
:102B0000DFF8281381F83300DFF8200390F8330052
:102B100080070BD58048407B0A2807DA7E48407B37
:102B2000012801D000F06DF900F0BAFD0020BF4986
:102B300081F83300BDEC028BF1BD0000ACF70A0850
:102B4000A538002004D20A085CD20A08B4F70A08A3
:102B5000BCEA0A083EB5684610F050FA0124022586
:102B600000980A21B0FBF1F010F13002D2B2290036
:102B7000C9B22000C0B203F093FB083400980A21C8
:102B8000B0FBF1F201FB120010F13002D2B22900C9
:102B9000C9B22000C0B203F083FBE41D3A22290031
:102BA000C9B22000C0B203F07BFB241D01980A21AA
:102BB000B0FBF1F010F13002D2B22900C9B220000E
:102BC000C0B203F06DFB083401980A21B0FBF1F2AA
:102BD00001FB120010F13002D2B22900C9B220006C
:102BE000C0B203F05DFB37BD7CB56A24002500262A
:102BF0009148407B0A2809DB8F48407B3228C0F28D
:102C000089808D48407B4C2880F28480894890F8E8
:102C1000690000283FD1DFF830054088B0F5DC7F3F
:102C20000DDB10200190082000901523DFF8642BA5
:102C30002900C9B22000C0B203F00CFD6AE0DFF841
:102C400008054088B0F5A57F17DDDFF8FC04408853
:102C5000B0F5A570072190FBF1F006003000C0B27E
:102C60000190082000901523DFF8282B2900C9B215
:102C70002000C0B203F0EEFC4CE0002001900820E0
:102C800000901523DFF80C2B2900C9B22000C0B238
:102C900003F0E0FC3EE0DFF8B0044088B0F5D27FFE
:102CA0000DDB10200190082000901523DFF8E42AA6
:102CB0002900C9B22000C0B203F0CCFC2AE0DFF842
:102CC00088044088B0F5A57F17DDDFF87C044088D4
:102CD000B0F5A570072190FBF1F006003000C0B2FE
:102CE0000190082000901523DFF8A82A2900C9B216
:102CF0002000C0B203F0AEFC0CE0002001900820E0
:102D000000901523DFF88C2A2900C9B22000C0B238
:102D100003F0A0FC73BD0000D028002030D20A08C8
:102D200084D797410000594000408F402DE9F34F70
:102D300081B014001D00002600275FF000085FF03E
:102D400004095FF0000A022300226921252002F015
:102D500039FC0DF10500D0F800B09DF804002018F2
:102D60008246EDB2002D09D15FFA8AFA5FEACA0005
:102D7000D0F18000022190FBF1F005000020060058
:102D80009DF8040086423AD21BF806000700002096
:102D900000904B46DBB23A00D2B24146C9B228009D
:102DA000C0B203F07DF9FFB2572F01D10C3524E0FA
:102DB000FFB24D2F01D10B351FE0FFB2DB2F01D148
:102DC0000A351AE0FFB2452F05D0FFB2462F02D0D8
:102DD000FFB24C2F01D1AD1D0FE0FFB2492F01D141
:102DE0006D1D0AE0FFB2542F01D1ED1D05E0FFB2C9
:102DF000202F01D16D1D00E00835761CC0E7BDE82D
:102E0000F78F80B5094890F8300004F001F80748C2
:102E100090F8330010F0FD00044981F8330001BD43
:102E2000AC36002048370020283700203C350020F1
:102E3000D8D10A08C0350020D028002000B583B0C2
:102E4000DFF85419D1F82A00C00511D5DFF8480978
:102E500090F8360001280BD1DFF840196846FDF7DD
:102E60001AFC00230122DDE9000100F071F9C8E03D
:102E7000DFF82419D1F82A00000511D5DFF8180968
:102E800090F8360002280BD1DFF814196846FDF7D8
:102E900002FC00230122DDE9000100F059F9B0E055
:102EA000DFF8F418D1F82A00000511D5DFF8E8089A
:102EB00090F8360003280BD1DFF8E8186846FDF7D4
:102EC000EAFB00230122DDE9000100F041F998E06E
:102ED000DFF8C418D1F82A00C00711D5DFF8B80808
:102EE00090F8360001280BD1DFF8BC186846FDF7D2
:102EF000D2FB00230122DDE9000100F029F980E086
:102F0000DFF89418D1F82A00000711D5DFF88808F7
:102F100090F8360002280BD1DFF890186846FDF7CC
:102F2000BAFB00230122DDE9000100F011F968E09D
:102F3000DFF86418D1F82A00000711D5DFF8580827
:102F400090F8360003280BD1DFF864186846FDF7C7
:102F5000A2FB00230122DDE9000100F0F9F850E0B6
:102F6000DFF8340890F82E00C0070BD5DFF84418BE
:102F70006846FDF790FB00230122DDE9000100F027
:102F8000E7F83EE0DFF8100890F82E0080070BD538
:102F9000DFF824186846FDF77EFB00230122DDE9F7
:102FA000000100F0D5F82CE0DFF8EC0790F82E00D7
:102FB00040070BD5DFF804186846FDF76CFB0023CB
:102FC0000122DDE9000100F0C3F81AE0DFF8C807CC
:102FD00090F82E00000714D5DFF8E4176846FDF7D7
:102FE0005AFB00230122DDE9000100F0B1F8DFF80F
:102FF000A80790F82E0010F0F700DFF89C1781F872
:103000002E00DFF8940790F83600002840F09B80EF
:10301000DFF88407B0F8700040F20441084245D060
:10302000DFF87417D1F82A0040050BD5DFF89417A4
:103030006846FDF730FB00230122DDE9000100F0C6
:1030400087F810E0DFF85017D1F82A0040070AD5BA
:10305000DFF874176846FDF71EFB00230122DDE947
:10306000000100F075F8DFF83017D1F82A0080076A
:1030700005D4DFF82417D1F82A00800563D5DFF8DE
:103080001807B0F8700040F202210843DFF8081773
:10309000A1F87000DFF80007B0F870004FF6FB31C0
:1030A0000840DFF8F416A1F870004CE0DFF8E806FD
:1030B000B0F8700040F20221084244D0DFF8D81680
:1030C000D1F82A0080050BD5DFF800176846FDF718
:1030D000E2FA00230122DDE9000100F039F810E0F6
:1030E000DFF8B416D1F82A0080070AD5DFF8441DAE
:1030F0006846FDF7D0FA00230122DDE9000100F067
:1031000027F8DFF89416D1F82A00400705D4DFF835
:103110008816D1F82A00400515D5DFF87C06B0F8EE
:10312000700040F204410843DFF86C16A1F870000B
:10313000DFF86406B0F870004FF6FD510840DFF884
:103140005816A1F8700007BDDC020020B8EB0A0891
:103150002DE9F34F81B014001D00002600275FF019
:1031600000085FF004095FF0000A02F0B0FA0DF108
:103170000500D0F800B09DF8040020188246EDB29A
:10318000002D0AD15FFA8AFA5FEACA00D0F1800006
:10319000022190FBF1F0801D0500002006009DF843
:1031A0000400864235D21BF806000700012000907B
:1031B0004B46DBB23A00D2B24146C9B22800C0B297
:1031C00002F06EFFFFB2572F01D10C351FE0FFB2A6
:1031D0004D2F01D10B351AE0FFB2452F05D0FFB2BC
:1031E000462F02D0FFB24C2F01D1AD1D0FE0FFB230
:1031F000492F01D16D1D0AE0FFB2542F01D1ED1D01
:1032000005E0FFB2202F01D16D1D00E00835761CCE
:10321000C5E7BDE8F78F30B583B0692400250223E8
:1032200000228421022002F0CDF9DFF80C0C407B53
:10323000002809D0DFF8000C407B152804D0DFF807
:10324000F80B407B192855D1DFF8F00B90F86D0092
:10325000012836D1DFF8E80B90F8560000280BD192
:10326000DFF8E01B6846FDF716FA2E230122DDE9A0
:103270000001FFF75BFD0FE1DFF8C40B90F856008B
:1032800001280BD1DFF8C01B6846FDF704FA2E2396
:103290000122DDE90001FFF749FDFDE0DFF8A00BA9
:1032A00090F85600022840F0F780DFF8A01B68462F
:1032B000FDF7F1F92E230122DDE90001FFF736FDCC
:1032C000EAE0DFF88C1B6846FDF7E5F92E230122C2
:1032D000DDE90001FFF72AFD5020040009200090DD
:1032E0000623DFF8702B2900C9B22000C0B202F01B
:1032F00090FBD1E0DFF8400B407B01280BD1DFF8D9
:10330000581B6846FDF7C7F92E230022DDE90001AE
:10331000FFF70CFDC0E0DFF8200B407B322804DB18
:10332000DFF8140B407B3A2809DBDFF80C0B407BFD
:103330004E2804D0DFF8000B407B4F2818D1DFF86F
:10334000101B6846FDF7A7F92E230122DDE90001D5
:10335000FFF7ECFC50200400092000900823DFF860
:10336000FC2A2900C9B22000C0B202F052FB93E04F
:10337000DFF8C40A407B3A2825D1DFF8E41A684612
:10338000FDF789F92E230122DDE90001FFF7CEFCCC
:103390004C200400092000900623DFF8C82A2900E9
:1033A000C9B22000C0B202F034FB5320040009204F
:1033B00000900623DFF89C2A2900C9B22000C0B281
:1033C00002F027FB68E0DFF8700A407B3C2804DB52
:1033D000DFF8640A407B462809DBDFF85C0A407BA3
:1033E0004C2804D0DFF8500A407B4D2818D1DFF874
:1033F000601A6846FDF74FF92E230122DDE900012E
:10340000FFF794FC50200400092000900623DFF809
:10341000542A2900C9B22000C0B202F0FAFA3BE0F7
:10342000DFF8140A407B4B2818D1DFF8341A6846BD
:10343000FDF731F92E230122DDE90001FFF776FCCB
:103440004C200400092000900623DFF8082A2900F8
:10345000C9B22000C0B202F0DCFA1DE0DFF8D809E2
:10346000407B0A280CD1DFF8D00901686846FDF7D7
:1034700012F930230022DDE90001FFF757FC0BE0D1
:10348000DFF8B40901686846FDF705F9002300225A
:10349000DDE90001FFF74AFCDFF89C09407B0A28C0
:1034A00009DBDFF89409407B322857DBDFF8880915
:1034B000407B4C2852DADFF88409407EC0070CD5E7
:1034C000232004000B2000900723DFF89C2929000B
:1034D000C9B22000C0B202F09CFADFF86009407E59
:1034E00040070CD5612004000B2000900623DFF874
:1034F0007C292900C9B22000C0B202F08AFADFF8A4
:103500003C09407E00070CD55D2004000B20009094
:103510000223DFF85C292900C9B22000C0B202F002
:1035200078FADFF81809407EC0060DD56A2004003D
:103530000A2000901623DFF83C292900C9B2200098
:10354000C0B202F066FA01E0FFF74EFBDFF8EC08CC
:1035500090F86200002801D1FFF7FCFA0C228021CC
:10356000002003F021FA37BD500100202DE9F34778
:1035700014000025002600275FF000080620070041
:103580002000C0B202F055F89DF800905FFA89F96A
:103590005FEAC900D0F13D00022190FBF1F0E4B2F6
:1035A000492101FB040080460DF10100D0F800A084
:1035B000002005005FFA89F94D4533D21AF805005D
:1035C0000600F6B25E2E09D10623DFF8AC283900DA
:1035D000C9B24046C0B202F07FFA07E03200D2B270
:1035E0003900C9B24046C0B202F092FFF6B24D2E89
:1035F00002D0F6B2572E02D118F10A0810E0F6B246
:10360000452E02D0F6B2492E02D118F1070807E084
:10361000F6B2DB2E02D118F10A0801E018F1080811
:103620006D1CC7E7BDE8F3872DE9F34F81B01400A7
:103630000025002600275FF000085FF00009062043
:1036400007009DF804A05FFA8AFA5FEACA00D0F189
:103650003D00022190FBF1F0E4B2492101FB04009E
:1036600080460DF10500D0F800B0002005005FFA9B
:103670008AFA554512D21BF805000600002000907A
:103680004B46DBB23200D2B23900C9B24046C0B2BA
:1036900002F006FD18F108086D1CE8E7BDE8F78F99
:1036A00000B583B0DFF890078068DFF8D017884254
:1036B00011D1DFF8840741686846FCF7ECFF00226F
:1036C000DDE90001FFF752FF0823062284214B2089
:1036D00001F078FF39E0DFF860078068DFF8A017B5
:1036E00088421CD1DFF8500741686846FCF7D3FFD9
:1036F0000022DDE90001FFF739FF082306228421BB
:103700004B2001F05FFFDFF8300781686846FCF767
:10371000C2FF0122DDE90001FFF786FF15E0DFF8B7
:10372000180741686846FCF7B6FF0022DDE9000192
:10373000FFF71CFFDFF8000781686846FCF7ABFF66
:103740000122DDE90001FFF711FFDFF8EC06007B45
:10375000012809D10C2000900923DFF82827062131
:103760003D2002F056F914E0DFF8CC06007B022879
:1037700009D10C2000900923DFF80C2706213D20F9
:1037800002F047F905E0082306224C213E2001F013
:1037900019FF07BD80D10A083C350020E0ED0A087A
:1037A000ECED0A08F8ED0A088CED0A08B0ED0A08FD
:1037B000BCED0A0804EE0A0810EE0A081CEE0A081E
:1037C00028EE0A08D4ED0A08A4ED0A08C8ED0A0894
:1037D0002DE9FE4F81460C001500FF2600275FF003
:1037E000000A5FF00008DFF8A40690F835008DF8B5
:1037F00004008DF806500020DFF8401681F83600EE
:10380000EDB2042D18D1DFF888068079042813D092
:1038100004208DF8060012208246022007000623AD
:1038200002228421022001F0CDFE3900C9B25046A7
:10383000C0B202F033F8F3E2EDB2042D00F0F082F2
:10384000DFF84C068079042807D106230222842160
:10385000022001F0B7FEFEF737FDDFF8300690F8E2
:103860003500002814D1DFF8240690F83400012830
:103870000ED1DFF8CC05816900EE101ADFED1F0ACA
:10388000B4EE600AF1EE10FA02D50120050014E052
:10389000DFF80006814506D3DFF8FC05B9FBF0F937
:1038A0000020050009E0DFF8F405814505D34FF459
:1038B0007A70B9FBF0F903200500B9F57A7F1FD2C1
:1038C0006420B9FBF0F08DF800000A208DF80100AB
:1038D0000A20B9FBF0F00A21B0FBF1F201FB120063
:1038E0008DF802000A20B9FBF0F100FB11908DF871
:1038F000030000208DF8050048E000BF0000C8422A
:1039000042F21070814520D24FF47A70B9FBF0F08A
:103910008DF800006420B9FBF0F00A21B0FBF1F251
:1039200001FB12008DF801000A208DF802000A2028
:10393000B9FBF0F00A21B0FBF1F201FB12008DF8A7
:10394000030001208DF8050020E042F21070B9FB61
:10395000F0F08DF800004FF47A70B9FBF0F00A2116
:10396000B0FBF1F201FB12008DF801006420B9FBFD
:10397000F0F00A21B0FBF1F201FB12008DF8020019
:103980000A208DF8030002208DF805008DF80650FE
:103990000E208246022007009DF80500DFF8F01493
:1039A0004979884233D19DF8050002282FD05FF075
:1039B000000B5FFA8BFBBBF1040F80F29E80684620
:1039C0005FFA8BFB10F80B00DFF8C4145FFA8BFB77
:1039D00011F80B1088420BD01C2368465FFA8BFB52
:1039E00010F80B203900C9B25046C0B201F0CEFE2B
:1039F00068465FFA8BFB10F80B000A2802D01AF118
:103A0000160A01E01AF10A0A1BF1010BD1E79DF831
:103A10000500022848D1DFF87804407902281ED03A
:103A20001C223900C9B25046C0B201F098FF5FF0C5
:103A3000000B5FFA8BFBBBF1030F5EDA1C236846B9
:103A40005FFA8BFB10F80B203900C9B25046C0B2A8
:103A500001F09CFE1AF1160A1BF1010BE9E75FF079
:103A6000000B5FFA8BFBBBF1030F46DA68465FFA87
:103A70008BFB10F80B00DFF818145FFA8BFB11F8C2
:103A80000B1088420BD01C2368465FFA8BFB10F8A2
:103A90000B203900C9B25046C0B201F077FE1AF1CE
:103AA000160A1BF1010BDCE71C223900C9B2504693
:103AB000C0B201F054FF5FF0000B5FFA8BFBBBF16B
:103AC000040F1ADA1C2368465FFA8BFB10F80B20F0
:103AD0003900C9B25046C0B201F058FE68465FFADC
:103AE0008BFB10F80B000A2802D01AF1160A01E02D
:103AF0001AF10A0A1BF1010BDFE7DFF89403C07922
:103B00000A21E34A127A01FB00200600200031005E
:103B1000C0B2C9B2884246D0642082460420070061
:103B2000062304227621642001F04CFDE4B2642CCB
:103B300001DB63200400E4B20A2094FBF0F08DF86E
:103B40000700E4B20A2094FBF0F100FB11408DF86D
:103B500008007FF0020B5B465BB29DF8070010F196
:103B60003002D2B23900C9B25046C0B202F050F9A8
:103B70001AF1080A5B465BB29DF8080010F13002AA
:103B8000D2B23900C9B25046C0B202F041F91AF1BE
:103B9000070A5B465BB225223900C9B25046C0B263
:103BA00002F036F907E0BA48C0798DF80700B84846
:103BB000007A8DF808009DF80600B5498979884299
:103BC00006D19DF80400B2490979884200F02881A5
:103BD0000423022284215C2001F0F4FCAB4890F81D
:103BE0003D00012819D1022007005A208246434691
:103BF0005BB220223900C9B25046C0B201F0BFFF0B
:103C00009DF80600022803D19DF80400002801D089
:103C10001AF1070A032080460CE09DF804000028F2
:103C200002D15C20824601E060208246022007002B
:103C3000002080469DF8060001281CD1934890F88A
:103C40003D0001280BD143465BB2ED223900C9B2D9
:103C50005046C0B201F093FF1AF1080A69E04346EA
:103C60005BB26E223900C9B25046C0B201F087FF84
:103C70001AF1080A5DE09DF80600022827D1834862
:103C800090F83D00012816D143465BB2EC22390082
:103C9000C9B25046C0B201F072FF1AF1080A434699
:103CA0005BB2EA223900C9B25046C0B201F067FFE8
:103CB0001AF1070A3DE043465BB22A223900C9B235
:103CC0005046C0B201F05BFF1AF1080A31E09DF8DE
:103CD000060003281ED16D4890F83D0001280BD145
:103CE00043465BB2EC223900C9B25046C0B201F083
:103CF00046FF1AF1080A1CE0BAF1030A43465BB218
:103D00006D223900C9B25046C0B201F038FF1AF135
:103D10000C0A0EE09DF8060000280AD143465BB26B
:103D200020223900C9B25046C0B201F028FF1AF172
:103D3000040A9DF80400002830D1544890F83D0052
:103D4000012816D143465BB2C7223900C9B250469A
:103D5000C0B201F014FF1AF1070A43465BB2E22237
:103D60003900C9B25046C0B201F009FF1AF1040A85
:103D70002FE0002353223900C9B25046C0B201F0EF
:103D8000FEFE1AF1080A002376223900C9B2504615
:103D9000C0B201F0F4FE1AF1060A1AE03B4890F8AE
:103DA0003D0001280BD143465BB2D0223900C9B295
:103DB0005046C0B201F0E3FE1AF1030A09E0002305
:103DC00052223900C9B25046C0B201F0D8FE1AF1F1
:103DD000070A2E4890F83D0001280DD11AF1050A76
:103DE0007FF00103F7223900C9B25046C0B201F09A
:103DF000C6FEBAF1050A0BE01AF1070A0023682291
:103E00003900C9B25046C0B201F0B9FEBAF1070A92
:103E100000232F223900C9B25046C0B201F0F8FF8A
:103E20001B486946B1E80C10A0E80C100C390C389E
:103E3000BDE8F78F98ED0A08D02800203C35002017
:103E4000DC02002000EC0A080CEC0A0818EC0A0856
:103E5000F4EB0A08F8EA0A0844ED0A0868E40A08DC
:103E60005CED0A0804EB0A08F0DD0A08E0EA0A083B
:103E70009CFB0A08ACD10A08ECEA0A0858EE0A08CA
:103E8000C4EE0A08D0E10A08E4E10A08C0350020BF
:103E9000AC36002000E1F50540420F00A08601008D
:103EA0002DE9FC4F87B006000F00002500240020FC
:103EB0008DF8060000208DF8040000208DF8050024
:103EC0005FF000095FF00008DFF8680990F835003E
:103ED0008DF80C009DF820008DF80E000020DFF812
:103EE000581981F836009DF82000042818D1DFF811
:103EF0004C098079042813D004208DF80E0012207C
:103F0000040002200500062302228421022001F081
:103F100059FB2900C9B22000C0B201F0BFFC62E227
:103F20009DF82000042800F05E82DFF810098079F7
:103F3000042807D1062302228421022001F042FB3B
:103F4000FEF798FADFF8EC0890F83500002817D152
:103F5000DFF8E00890F83400012811D1DFF8E028FC
:103F6000106A516A41EC100B51EC100B0022DFF883
:103F7000D4380EF0D1FE03D201208DF8200028E0C5
:103F8000DFF8C40800218F420FD301D886420CD33A
:103F900030003900DFF8B42800230FF069FA06007A
:103FA0000F0000208DF8200013E0DFF8A4080021A6
:103FB0008F420ED301D886420BD3300039004FF424
:103FC0007A7200230FF054FA06000F0003208DF8D8
:103FD0002000002F26D802D3B6F57A7F22D23000F7
:103FE0003900642200230FF043FA8DF808000A20FC
:103FF0008DF80900300039000A2200230FF038FA4A
:104000000A2200230FF034FA8DF80A20300039001C
:104010000A2200230FF02CFA8DF80B2000208DF8D7
:104020000D0057E042F2107000218F422AD801D3D0
:10403000864227D2300039004FF47A7200230FF005
:1040400017FA8DF8080030003900642200230FF0C1
:104050000FFA0A2200230FF00BFA8DF809200A202C
:104060008DF80A00300039000A2200230FF000FA10
:104070000A2200230FF0FCF98DF80B2001208DF8A7
:104080000D0027E03000390042F2107200230FF0DB
:10409000EFF98DF80800300039004FF47A720023F0
:1040A0000FF0E6F90A2200230FF0E2F98DF809205B
:1040B00030003900642200230FF0DAF90A220023CD
:1040C0000FF0D6F98DF80A200A208DF80B00022097
:1040D0008DF80D009DF820008DF80E000E200400D4
:1040E000022005009DF80D00DFF85017497988423D
:1040F00031D19DF80D0002282DD05FF0000A5FFA43
:104100008AFABAF1040F80F29A8002A85FFA8AFA5A
:1041100010F80A00DFF824175FFA8AFA11F80A107B
:1041200088420BD01C2302A85FFA8AFA10F80A20F2
:104130002900C9B22000C0B201F028FB02A85FFA32
:104140008AFA10F80A000A2801D0163400E00A346E
:104150001AF1010AD3E79DF80D00022848D19DF815
:104160000D00DFF8D8164979884223D15FF0000AA4
:104170005FFA8AFABAF1030F61DA02A85FFA8AFAE3
:1041800010F80A00DFF8B4165FFA8AFA11F80A107C
:1041900088420BD01C2302A85FFA8AFA10F80A2082
:1041A0002900C9B22000C0B201F0F0FA16341AF1A9
:1041B000010ADDE71C222900C9B22000C0B201F0CB
:1041C000CEFB5FF0000A5FFA8AFABAF1030F36DA23
:1041D0001C2302A85FFA8AFA10F80A202900C9B243
:1041E0002000C0B201F0D2FA16341AF1010AEAE74F
:1041F0001C222900C9B22000C0B201F0B0FB5FF060
:10420000000A5FFA8AFABAF1040F18DA1C2302A82E
:104210005FFA8AFA10F80A202900C9B22000C0B259
:1042200001F0B4FA02A85FFA8AFA10F80A000A2824
:1042300001D0163400E00A341AF1010AE1E79DF8D2
:104240000E00DFF8F8158979884200F0CC80032051
:104250000500642004005FF0000A5FFA8AFABAF1F0
:10426000030F0BDA002320222900C9B22000C0B2BC
:1042700001F085FC09341AF1010AEEE79DF80C0003
:10428000002802D16420040001E0692004009DF8A8
:104290000E00012819D1DFF89C0590F83D00012897
:1042A00009D10023ED222900C9B22000C0B201F0DB
:1042B00066FC083450E000236E222900C9B22000B9
:1042C000C0B201F05CFC083446E09DF80E00022804
:1042D00025D1DFF8600590F83D00012812D10023B8
:1042E000EC222900C9B22000C0B201F048FC083419
:1042F0000023EA222900C9B22000C0B201F03FFC2D
:10430000E41D29E00E2000900D23DFF86C2D29001C
:10431000C9B22000C0B201F07CFB08341CE09DF85B
:104320000E00032818D1DFF80C0590F83D00012895
:1043300009D10023EC222900C9B22000C0B201F04B
:104340001EFC083408E000236D222900C9B22000B9
:10435000C0B201F014FC0C349DF80C0000282AD1E6
:10436000DFF8D00490F83D00012812D10023C722C5
:104370002900C9B22000C0B201F001FCE41D0023F5
:10438000E2222900C9B22000C0B201F0F8FB241DCE
:1043900029E0002353222900C9B22000C0B201F055
:1043A000EEFB0834002376222900C9B22000C0B2F7
:1043B00001F0E5FB17E0DFF87C0490F83D000128F0
:1043C00009D10023D0222900C9B22000C0B201F0D7
:1043D000D6FBE41D07E0002352222900C9B22000C9
:1043E000C0B201F0CCFB0798DFF8F81C884280F0DF
:1043F000A68007984FF46161B0FBF1F08DF80400DE
:1044000007983C21B0FBF1F09DF804103C22514389
:10441000401A8DF8060030208DF80F009DF804003A
:104420000A2190FBF1F00A2190FBF1F201FB12004E
:1044300030308DF810009DF804000A2190FBF1F255
:1044400001FB120030308DF81100DFF8E80390F81E
:104450003D00002801D1482000E0D7208DF812004F
:104460009DF806000A2190FBF1F00A2190FBF1F281
:1044700001FB120030308DF813009DF806000A2170
:1044800090FBF1F201FB120030308DF81400DFF8E0
:10449000A40390F83D00002801D14D2000E0CC207D
:1044A0008DF815000020C0B207280DDA02A9C0B2AD
:1044B0000144C979E14AC0B20244D279914201D0A3
:1044C00001218846401CEEE75FFA88F8B8F1000F3A
:1044D00000F0A68148200400062005007FF0020AB3
:1044E0005FF0000B5FFA8BFBBBF1070F0CDA534652
:1044F0005BB220222900C9B22000C0B201F03FFB0C
:1045000008341BF1010BEDE7482004005FF0010BBC
:104510005FFA8BFBBBF1070F80F2828153465BB2DF
:1045200002A85FFA8BFB5844C2792900C9B2200067
:10453000C0B201F024FB08341BF1010BE8E7079837
:10454000DFF8A81B884280F0BE800798DFF8941B34
:10455000B0FBF1F0814607984FF46161B0FBF1F0D8
:104560001FFA89F9182101FB09F1401A8DF804009E
:104570001FFA89F9642099FBF0F00A2190FBF1F20F
:1045800001FB120030308DF80F001FFA89F90A2064
:1045900099FBF0F00A2190FBF1F201FB12003030A0
:1045A0008DF810001FFA89F90A2099FBF0F100FB41
:1045B000119030308DF811009E4890F83D00002891
:1045C00001D1442000E0C4208DF812009DF80400C1
:1045D0000A2190FBF1F00A2190FBF1F201FB12009D
:1045E00030308DF813009DF804000A2190FBF1F2A1
:1045F00001FB120030308DF814008E4890F83D0019
:10460000002801D1482000E0D7208DF815000020B7
:10461000C0B207280DDA02A9C0B20144C979874A9D
:10462000C0B20244D279914201D001218846401C97
:10463000EEE75FFA88F8B8F1000F00F0F18048204B
:104640000400062005007FF0020A5FF0000B5FFA0D
:104650008BFBBBF1070F0CDA53465BB2202229001B
:10466000C9B22000C0B201F08AFA08341BF1010B74
:10467000EDE7482004009DF80F0030280AD053468B
:104680005BB29DF80F202900C9B22000C0B201F032
:1046900076FA08345FF0010B5FFA8BFBBBF1070F72
:1046A00080F2BE8053465BB202A85FFA8BFB58448F
:1046B000C2792900C9B22000C0B201F060FA083402
:1046C0001BF1010BE8E70798DFF8201AB0FBF1F0C7
:1046D0008DF805000798DFF80C1AB0FBF1F09DF893
:1046E000051040F26D125143401A81469DF80500B5
:1046F0000A2190FBF1F00A2190FBF1F201FB12007C
:1047000030308DF80F009DF805000A2190FBF1F282
:1047100001FB120030308DF81000464890F83D0043
:10472000002801D1592000E0C3208DF811001FFAA4
:1047300089F9642099FBF0F00A2190FBF1F201FB6A
:10474000120030308DF812001FFA89F90A2099FB07
:10475000F0F00A2190FBF1F201FB120030308DF8ED
:1047600013001FFA89F90A2099FBF0F100FB119060
:1047700030308DF814002F4890F83D00002801D10A
:10478000442000E0C4208DF815000020C0B20728A6
:104790000DDA02A9C0B20144C979284AC0B2024464
:1047A000D279914201D001218846401CEEE75FFAA0
:1047B00088F8B8F1000F33D0482004000620050027
:1047C0007FF0020A5FF0000B5FFA8BFBBBF1070F73
:1047D0000CDA53465BB220222900C9B22000C0B2D5
:1047E00001F0CDF908341BF1010BEDE7482004007E
:1047F0005FF0000B5FFA8BFBBBF1070F10DA53463B
:104800005BB202A85FFA8BFB5844C2792900C9B297
:104810002000C0B201F0B3F908341BF1010BE9E745
:1048200002A80FC8DFF814C08CE80F0009B0BDE87B
:10483000F08F0000C03500203C35002028370020D4
:10484000DC0200200000594000E1F50540420F0065
:10485000A08601002DE9F8432DED028B84B0B0EE67
:10486000408A04000D0000275FF00008DFF8800890
:1048700090F836008DF804008DF80650DFF87408C3
:10488000C0790A21DFF86C28127A01FB002601208A
:10489000DFF8641881F83600EDB2042D18D1DFF886
:1048A00054088079042813D004208DF806001220C3
:1048B000804602200700062302228421022000F005
:1048C00081FE3900C9B24046C0B200F0E7FFFFE206
:1048D000EDB2042D00F0FC82DFF81808807904287E
:1048E00007D1062302228421022000F06BFEFDF78F
:1048F00063FDDFF8FC0790F83600012803D19FED37
:10490000420A28EE008A9FED410AB4EE408AF1EE99
:1049100010FA07DB9FED3D0A88EE008A02208DF831
:1049200006000DE09FED3A0AB4EE408AF1EE10FA6F
:1049300006DB9FED370A88EE008A01208DF806001D
:10494000B2EE040AB4EE408AF1EE10FA2AD5BCEEBB
:10495000C80A10EE100A8DF800000A208DF8010038
:10496000B2EE040A28EE000ABCEEC00A10EE100AED
:104970000A21B0FBF1F201FB12008DF802009FED5D
:10498000250A28EE000ABCEEC00A10EE100A0A2121
:10499000B0FBF1F201FB12008DF8030000208DF84E
:1049A000050061E09FED1B0AB4EE408AF1EE10FABB
:1049B00032D5B2EE040A88EE000ABCEEC00A10EE50
:1049C000100A8DF80000BCEEC80A10EE100A0A2189
:1049D000B0FBF1F201FB12008DF801000A208DF806
:1049E0000200B2EE040A28EE000ABCEEC00A10EE85
:1049F000100A0A21B0FBF1F201FB12008DF803004E
:104A000001208DF805002FE0000070420024744959
:104A100000007A440000C842BCEEC80A10EE100A3A
:104A20006421B0FBF1F08DF80000BCEEC80A10EE76
:104A3000100A0A21B0FBF1F00A21B0FBF1F201FBF0
:104A400012008DF80100BCEEC80A10EE100A0A210F
:104A5000B0FBF1F201FB12008DF802000A208DF884
:104A6000030002208DF805000E208046022007007A
:104A70009DF80500DFF87C164979884233D19DF80E
:104A8000050002282FD05FF000095FFA89F9B9F11B
:104A9000040F80F2A08068465FFA89F910F80900D7
:104AA000DFF850165FFA89F911F8091088420BD027
:104AB0001C2368465FFA89F910F809203900C9B249
:104AC0004046C0B200F062FE68465FFA89F910F80D
:104AD00009000A2802D018F1160801E018F10A08A6
:104AE00019F10109D1E79DF8050002284AD19DF886
:104AF0000500DFF800164979884224D15FF00009EB
:104B00005FFA89F9B9F1030F65DA68465FFA89F946
:104B100010F80900DFF8DC155FFA89F911F80910BF
:104B200088420BD01C2368465FFA89F910F80920E7
:104B30003900C9B24046C0B200F028FE18F116088C
:104B400019F10109DCE71C223900C9B24046C0B2A4
:104B500000F005FF5FF000095FFA89F9B9F1030F72
:104B600039DA1C2368465FFA89F910F80920390000
:104B7000C9B24046C0B200F009FE18F1160819F19A
:104B80000109E9E71C223900C9B24046C0B200F071
:104B9000E6FE5FF000095FFA89F9B9F1040F1ADA4D
:104BA0001C2368465FFA89F910F809203900C9B258
:104BB0004046C0B200F0EAFD68465FFA89F910F895
:104BC00009000A2802D018F1160801E018F10A08B5
:104BD00019F10109DFE79DF80600DFF8181589795A
:104BE000884207D19DF80400DFF80815097988424A
:104BF00000F0198100F08DF902200700DFF8F004C1
:104C000090F83D00002840F08980642080465FF0E5
:104C100000095FFA89F9B9F1060F0CDA00232022A6
:104C20003900C9B24046C0B200F0A9FF18F1080827
:104C300019F10109EDE75C2080469DF80600022885
:104C40000CD15B2080460023CC223900C9B24046FB
:104C5000C0B200F094FF18F10A0818E09DF80600B1
:104C600001280AD100234B223900C9B24046C0B204
:104C700000F085FF18F1080809E000232022390020
:104C8000C9B24046C0B200F07AFF18F10808DFF858
:104C9000600490F8360000281CD1002363223900FC
:104CA000C9B24046C0B200F06AFF18F108080023FC
:104CB00070223900C9B24046C0B200F060FF18F15E
:104CC0000808002373223900C9B24046C0B200F080
:104CD00056FFA6E0DFF8180490F83600012840F0EF
:104CE000A080002363223900C9B24046C0B200F060
:104CF00046FF18F10808002370223900C9B2404667
:104D0000C0B200F03CFF18F1080800236D22390002
:104D1000C9B24046C0B200F032FF82E0592080465E
:104D20009DF8060002280BD17FF001034D223900C7
:104D3000C9B24046C0B200F022FF18F1080819E0DD
:104D40009DF8060001280BD17FF001034B223900AA
:104D5000C9B24046C0B200F012FF18F1070809E0DE
:104D6000002320223900C9B24046C0B200F007FF3C
:104D700018F10808662080460423E8223900C9B2E9
:104D80004046C0B200F0FBFE18F107080423EC22F5
:104D90003900C9B24046C0B200F0F1FE18F108086F
:104DA0000423EF223900C9B24046C0B200F0E7FE4A
:104DB0007F1CCF4890F8360000280AD16E2080462C
:104DC0000323F1223900C9B24046C0B201F020F8F5
:104DD00022E0C74890F8360001281DD166208046A1
:104DE0000323EC223900C9B24046C0B200F0C7FE2E
:104DF00018F108080323E8223900C9B24046C0B2BE
:104E000000F0BDFE18F107080323ED223900C9B2F6
:104E10004046C0B200F0B3FE18227E21632001F0AC
:104E2000C3FDFF20060020003100C0B2C9B2884295
:104E300046D0062304227621642000F0C3FB6420C0
:104E4000804604200700E4B2642C01DB63200400E8
:104E5000E4B20A2094FBF0F08DF80700E4B20A20D7
:104E600094FBF0F100FB11408DF808007FF002097F
:104E70004B465BB29DF8070010F13002D2B2390008
:104E8000C9B24046C0B200F0C3FF18F108084B4653
:104E90005BB29DF8080010F13002D2B23900C9B2FD
:104EA0004046C0B200F0B4FF18F107084B465BB2B1
:104EB00025223900C9B24046C0B200F0A9FF07E080
:104EC0008C48C0798DF807008A48007A8DF8080070
:104ED00088486946B1E80C10A0E80C100C390C3871
:104EE00004B0BDEC028BBDE8F18380B501F07DFF1D
:104EF000092302228421002000F064FB01BD80B55B
:104F000001F073FF0923022284210D2000F05AFBD7
:104F100001BD80B501F069FF0623022284215C20D7
:104F200000F050FB01BD70B501F05FFF00240025CB
:104F300010200500022004001C222100C9B2280014
:104F4000C0B200F00CFD572005000220040000262E
:104F5000F6B2062E0ADA002320222100C9B2280068
:104F6000C0B200F00CFE0835761CF1E757200500B2
:104F700004200400002320222100C9B22800C0B26E
:104F800000F0FDFD0835002320222100C9B22800D1
:104F9000C0B200F0F4FDED1D002320222100C9B2B3
:104FA0002800C0B200F0EBFD70BD80B553485449F5
:104FB0002C2200F0D3F8FEF72EF9FFF796FFFEF74C
:104FC0006FFB4B4890F83D0000280FD108220821C4
:104FD0004C48FBF7EFFC142206214B48FBF7EAFC98
:104FE0002022012140A0FBF7E5FC0EE00822092168
:104FF0004648FBF7DFFC142206214548FBF7DAFCA4
:105000002022012138A0FBF7D5FC01F053FE01BDA1
:1050100080B53A483F492C2200F0A0F8FEF7FBF893
:10502000FFF763FFFEF73CFB314890F83D00002896
:105030000FD1082205213848FBF7BCFC14220421BB
:105040003648FBF7B7FC2022012127A0FBF7B2FC72
:105050000EE0082208213248FBF7ACFC14220421A0
:105060003048FBF7A7FC202201211FA0FBF7A2FC80
:1050700001F020FE01BD00000CDE0A0880B51F48CB
:1050800029492C2200F06AF8FEF7C5F8FFF72DFF3A
:10509000FEF706FB164890F83D0000280FD10822C5
:1050A00005212248FBF786FC142207212048FBF744
:1050B00081FC202201210CA0FBF77CFC0EE00822E1
:1050C00008211C48FBF776FC142207211A48FBF73D
:1050D00071FC2022012104A0FBF76CFC01F0EAFD29
:1050E00001BD0000805101003F0000008033E1015C
:1050F000C0350020483700203C350020D028002053
:10510000FCDB0A0834E80A08BCF70A0810E80A08B9
:10511000C4F70A0828DC0A08CCF70A089CF60A0833
:10512000C8EA0A08D4F70A0854DC0A08DCF70A08B7
:1051300044F70A08D4EA0A08E4F70A0862B38B07BE
:1051400008D0521E11F8013B00F8013B00F024800A
:105150008B07F6D1830740F0208000BF103A07D3B9
:1051600030B4B1E83810103AA0E83810F9D230BCA9
:10517000530724BFB1E80810A0E8081044BF51F855
:10518000043B40F8043BD20724BF31F8022B20F83F
:10519000022B44BF0B7803707047083A07D3B1E87D
:1051A0000810083A40F8043B40F804CBF7D2530704
:1051B000E4E70268531C0360117070470069704790
:1051C000816170478162704780B54FF48061DFF87C
:1051D0002C0CFFF7F5FF4FF48071DFF8200CFFF780
:1051E000F1FF0120DFF8181C81F8790001BD80B5BE
:1051F0004FF48061DFF8040CFFF7E2FF4FF4807199
:10520000DFF8F80BFFF7DEFF00F06BF9DFF8F40BC7
:1052100090F83B0000F05BF9DFF8E80B90F84200F3
:10522000DFF8DC1B81F878000120DFF8D41B81F85F
:10523000790001BD10B50400FF21DFF8C00BFFF7B6
:10524000C1FF4FF40071DFF8C00BFFF7B9FF022177
:10525000DFF8B80BFFF7B4FFE4B22100DFF89C0BD6
:10526000FFF7AEFF0121DFF8A40BFFF7ABFF012131
:10527000DFF8980BFFF7A4FF10BDF8B504000D0090
:105280000026002001002A00C9B2D2B2914204D205
:105290000021C0B22154401CF4E7FF21DFF85C0B71
:1052A000FFF790FF4FF40071DFF85C0BFFF788FF0A
:1052B0000221DFF8580BFFF783FF0121DFF84C0BC9
:1052C000FFF77EFF0EF0BEFC0221DFF8400BFFF778
:1052D00079FFDFF8280BFFF771FF06000221DFF8E6
:1052E0002C0BFFF76DFF002738002900C0B2C9B2B0
:1052F000884212D20221DFF8140BFFF763FFDFF8B8
:10530000FC0AFFF75BFF0600FFB2E6550221DFF85B
:10531000FC0AFFF755FF7F1CE6E70EF07BFCF1BDB2
:105320002DE9F84F04000D0016001F009DF928809C
:105330005FF000095FF0000A4FFA88F8B8F1000F3B
:1053400004D4FF2050FA08F0824605E0FF20FF2138
:1053500018FB01F188408246FF21DFF8A00AFFF721
:1053600031FF4FF40071DFF8A00AFFF72BFF022195
:10537000DFF8980AFFF724FF0121DFF8900AFFF712
:1053800021FFE02000F067F82900C9B22000C0B278
:1053900000F0CFF95FF0000B58463900C0B2C9B237
:1053A000884243D2FF21DFF8540AFFF70BFF4FF486
:1053B0000071DFF8540AFFF703FF0221DFF84C0AFF
:1053C000FFF7FEFE0121DFF8440AFFF7F9FE0EF0B9
:1053D00039FC0221DFF8340AFFF7F4FEDFF81C0A7B
:1053E000FFF7ECFE81460221DFF8200AFFF7E8FE16
:1053F0000221DFF8180AFFF7E5FEDFF8000AFFF7E1
:10540000DDFE81460221DFF8040AFFF7D9FE0EF027
:1054100001FC5FFA8BFB16F80B001AEA090108433E
:10542000C0B2FFF707FF1BF1010BB5E74FF40071A6
:10543000DFF8D409FFF7C6FE0221DFF8D009FFF735
:10544000BFFE0121DFF8C409FFF7BCFEEE2000F02B
:1054500002F8BDE8F18F10B50400FF21DFF89C09C8
:10546000FFF7B0FE4FF40071DFF89C09FFF7AAFECA
:105470000221DFF89809FFF7A3FE0121DFF88C096C
:10548000FFF7A0FEE4B22100DFF87009FFF798FEF5
:105490000121DFF87809FFF793FE10BD10B5040075
:1054A00054F040042000C0B2FFF7D5FF10BD10B586
:1054B000040054F02800C0B2FFF7CDFF10BD10B5B6
:1054C000040054F02000C0B2FFF7C5FF10BD10B5B6
:1054D00004008120FFF7BFFF2000C0B2FFF7BBFF31
:1054E00010BD80B5E220FFF7B6FF64200EF09EFCF1
:1054F000A120FFF7B0FFC020FFF7ADFFA220FFF70C
:10550000AAFF0720FFF7D3FF0620FFF7D8FFDFF839
:10551000840B0078FFF7DBFF0020FFF7BFFFAF2011
:10552000FFF799FF64200EF081FCA620FFF793FFA0
:10553000A420FFF790FF0020DFF85C1B087000201C
:10554000DFF8581B087001BD80B5AE20FFF783FF60
:10555000A420FFF780FF0020DFF8A41881F879006D
:1055600001BD80B54FF48061DFF89008FFF72AFE97
:105570004FF48071DFF88408FFF722FE0020DFF887
:10558000801881F8790001BD38B500200400E4B22C
:10559000092C16DAB4F15000C0B2FFF75CFF00200E
:1055A000FFF759FF1020FFF756FF00200500EDB26E
:1055B000842D04DA0020FFF73DFE6D1CF7E7641C24
:1055C000E5E731BD2DE9F04704000D0016001F008E
:1055D000A146B24650463900C0B2C9B2884226D26E
:1055E000BAF15000C0B2FFF736FF0020FFF733FFDB
:1055F0001020FFF730FF4846C0B2000950F01000FD
:10560000C0B2FFF728FF19F00F00FFF724FFA046F4
:1056100040462900C0B2C9B2884205D20020FFF737
:1056200009FE18F10108F3E71AF1010AD2E7BDE813
:10563000F0872DE9F843040000275FF000085FF0D1
:105640000009E4B2002C04D1022007003E2080466D
:1056500003E04D2007008420804606200500EDB2BF
:10566000082D32DAEDB22800062802D0072803D030
:1056700005E0F020814602E0FF208146FFE7B5F11A
:105680005000C0B2FFF7E7FE0020FFF7E4FE102055
:10569000FFF7E1FE3800C0B2000950F01000C0B2C0
:1056A000FFF7D9FE17F00F00FFF7D5FE3E003000E0
:1056B0004146C0B2C9B2884205D24846C0B2FFF7DF
:1056C000B9FD761CF3E76D1CC9E7BDE8F18370B541
:1056D000002600200400E4B2022C29DAE4B2002CF7
:1056E00002D0012C03D005E0FF20060002E00F20CD
:1056F0000600FFE7B4F15000C0B2FFF7ACFE002097
:10570000FFF7A9FE1020FFF7A6FE1020FFF7A3FE6B
:105710000220FFF7A0FE02200500EDB2842D05DA7D
:105720003000C0B2FFF786FD6D1CF6E7641CD2E7BF
:1057300070BD38B504000D00E01CDFF85C1908707E
:10574000DFF858090570DFF850090078401CDFF8D1
:1057500048190870DFF84409007810F00F0050F085
:10576000B000C0B2FFF777FEDFF82C090078C0B2B6
:10577000000950F01000C0B2FFF76DFEDFF8180905
:10578000007810F00F00FFF766FE31BD2DE9F44FF1
:1057900082B004000D009B46002600275FF0000841
:1057A0005FF000095FF0000A5FFA8BFB08209BFBAB
:1057B000F0F100FB11B0002807D05FFA8BFB082046
:1057C0009BFBF0F0401C060005E05FFA8BFB082015
:1057D0009BFBF0F006002900C9B22000C0B2FFF721
:1057E000A8FF5FFA8BFB5846182804D01C2809D064
:1057F00020280ED014E0DFF8FC0C5044009010205C
:1058000007000DE0DFF8F00C504400901320070073
:1058100006E0DFF8E80C5044009014200700FFE792
:105820009DF80800FFB27843F6B2704382469DF8B7
:105830000800252806D1DFF8C80C009017200700C3
:10584000002082460020804640463100C0B2C9B2E6
:10585000884221D20020814648463900C0B2C9B2F0
:1058600088420FD2009850445FFA88F840445FFAAB
:1058700089F9F6B206FB09F1405CFFF7DBFC19F190
:105880000109E9E76D1C2900C9B22000C0B2FFF789
:1058900050FF18F10108D7E7BDE8F78F2DE9F84F61
:1058A00004000D0004261D275FF000085FF00009CA
:1058B0008DF800505FF0000B5FFA8BFBBBF1030F1C
:1058C0004BDA2900C9B22000C0B2FFF732FF5FFAFD
:1058D0008BFBBBF1000F04D0BBF1020F09D004D346
:1058E0000BE0DFF8200C824607E0DFF81C0C824654
:1058F00003E0DFF8180C8246FFE7002080464046B0
:105900003100C0B2C9B2884220D200208146484648
:105910003900C0B2C9B288420ED25FFA88F80AEBE9
:1059200008005FFA89F9F6B206FB09F1405CFFF75F
:1059300081FC19F10109EAE76D1C2900C9B22000B8
:10594000C0B2FFF7F6FE18F10108D8E724349DF83D
:10595000000005001BF1010BAEE7BDE8F18F2DE95A
:10596000F04704000D00160000275FF000085FF00C
:1059700000095FF0000AF6B2082096FBF0F100FB88
:105980001160002806D0F6B2082096FBF0F0401C0B
:10599000070004E0F6B2082096FBF0F007002900AB
:1059A000C9B22000C0B2FFF7C4FEF6B2300018281A
:1059B00004D01C2805D0202806D008E016208046F8
:1059C00005E04920804602E014208046FFE70020E1
:1059D000814648463900C0B2C9B2884217D2002079
:1059E000824650464146C0B2C9B2884205D2002024
:1059F000FFF720FC1AF1010AF3E76D1C2900C9B278
:105A00002000C0B2FFF795FE19F10109E1E7BDE8FA
:105A1000F0872DE9F84F05000E00170098460A9C04
:105A20005FF000095FF0000A5FF0000BE4B20820AD
:105A300094FBF0F100FB1140002806D0E4B20820EE
:105A400094FBF0F0401C814604E0E4B2082094FB93
:105A5000F0F081465FFA88F858FA85F0812802DB79
:105A6000D5F1800080465FFA88F858FA85F08128E1
:105A700030DAF6B2082E2DDA3100C9B22800C0B2F1
:105A8000FFF757FE0020824650464946C0B2C9B2D1
:105A900088421FD20020834658464146C0B2C9B250
:105AA00088420DD25FFA8BFB5FFA89F909FB0BF094
:105AB00050FA8AF0385CFFF7BDFB1BF1010BEBE7F6
:105AC000761C3100C9B22800C0B2FFF732FE1AF1CD
:105AD000010AD9E7BDE8F18F2DE9F84F04000D0068
